S0110000766F6C746D657465722E7372656331
S11300000C946B000C94DD010C9406020C94880093
S11300100C9488000C9488000C9488000C9488003C
S11300200C9488000C9488000C9488000C9488002C
S11300300C9488000C9488000C9446020C9488005C
S11300400C9488000C9488000C9488000C942F0263
S11300500C94880007634236B79BD8A71A396856B0
S113006018AEBAAB558C1D3CB7CC5763BD6DEDFDD6
S1130070753EF6177231BF000000803F0800000093
S1130080BE922449123EABAAAA2ABECDCCCC4C3E89
S113009000000080BEABAAAAAA3E00000000BF0078
S11300A00000803F0000000000084178D3BB438774
S11300B0D1133D190E3CC3BD4282AD2B3E68EC8288
S11300C076BED98FE1A93E4C80EFFFBE01C4FF7F0D
S11300D03F000000000011241FBECFE5D4E0DEBFC6
S11300E0CDBF10E0A0E6B0E0E2E9FEE002C005907A
S11300F00D92AC36B107D9F720E0ACE6B0E001C010
S11301001D92A537B207E1F70E9449010C944707F5
S11301100C940000181624F486301CF085E001C00D
S113012081E098B3907E98BB48B3815021E030E0E1
S1130130B90102C0660F771F8A95E2F7CB01842BC1
S113014088BB0895EF92FF920F931F93CF93DF9391
S1130150FC017B0140E050E000E810E0C4E0D0E0A6
S113016082B3806F82BB92B39801042E02C035958E
S113017027950A94E2F7822F8095892382BB9F01F9
S1130180ADECBCEC0E9438079695879596958795BB
S1130190969587959C01220F331F880F991F880F0E
S11301A0991F880F991F820F931FDF01A81BB90B9A
S11301B0AF59BF4F8C9185BBCE01841B950BE816BC
S11301C0F90611F4AF9A01C0AF989F01ADECBCECF5
S11301D00E943807FC01F695E795F695E795F695A4
S11301E0E79581EE94E00197F1F700C000004F5FBE
S11301F05F4F4430510509F0B3CFDF91CF911F9188
S11302000F91FF90EF9008955D9BFECF8CB90895F8
S1130210CF92DF92EF92FF920F931F93CF93DF93CE
S11302207C016B0101E010E0C8EED3E0C701BE0120
S11302300E94240780E3860F0E9404010C151D050B
S113024019F48EE20E940401C701BE010E94240732
S11302507C019E01ADECBCEC0E943807EC01D69504
S1130260C795D695C795D695C7950F5F1F4F05308F
S11302701105E1F68DE00E9404018AE00E94040168
S1130280DF91CF911F910F91FF90EF90DF90CF906E
S113029008951ABA8FE987BB8FEF84BB80EF81BBC7
S11302A080E28BB998E99AB986E880BD8CE089B977
S11302B010BC8DE083BF12BE86E28CBF82E089BF92
S11302C088BF8FE085BF80EC8BBF8ABF87B996B9A2
S11302D0789481E00E948A00F12C6894BB24B3F8DE
S11302E0DD24D3940F2EFDE0CF2EF02DE12C04E07D
S11302F010E0B69B0CC0FF2009F45AC008C012BE1F
S1130300C3BEC798FD2C03C0B3BEC79AFD2CB69BD1
S1130310FE2CC09160000C2E000CDD0BB8016C1B90
S11303207D0B072E000C880B990B0E9410049B0177
S1130330AC0160E070E080E291E40E94320520911B
S11303406C0030916D0040916E0050916F000E94DE
S1130350C5040E94DF03DC01CB01BE010E94A200A0
S1130360C09160000C2E000CDD0BB8016C1B7D0BE2
S1130370072E000C880B990B0E9410049B01AC0102
S113038060E070E080E291E40E94320520916C000C
S113039030916D0040916E0050916F000E94C50431
S11303A00E94DF03DC01CB01BE010E940801A1CF42
S11303B083B7877009F4A3CFA7CF1F920F920FB60C
S11303C00F9211242F933F934F935F936F937F93D7
S11303D08F939F93AF93BF93EF93FF9380916000AC
S11303E08F5F809360000E948A00FF91EF91BF911C
S11303F0AF919F918F917F916F915F914F913F91B9
S11304002F910F900FBE0F901F9018951F920F926F
S11304100FB60F9211242F933F934F935F936F93D3
S11304207F938F939F93AF93BF93EF93FF938091A9
S113043060008150809360000E948A00FF91EF91D8
S1130440BF91AF919F918F917F916F915F914F91E8
S11304503F912F910F900FBE0F901F9018951F92F0
S11304600F920FB60F9211248F93809174008F5FB7
S1130470813019F08093740003C010927400369A8E
S11304808F910F900FBE0F901F9018951F920F928F
S11304900FB60F921124CF92DF92EF92FF922F9317
S11304A03F934F935F936F937F938F939F93AF93F8
S11304B0BF93EF93FF9364B175B180E090E00E9425
S11304C00E042AE037ED43E250E40E94C50420E024
S11304D030EC4FE754E40E946D036B017C016093A0
S11304E070007093710080937200909373008091F8
S11304F060008130C9F420E030E040E050E4C701FE
S1130500B6010E94C004181634F482E0809360009F
S11305100E948A00C8C0C0926C00D0926D00E09224
S11305206E00F0926F00BFC0823089F520E030E0A9
S113053040E050E4C701B6010E94C004181634F428
S113054083E0809360000E948A00ADC02DEC3CECF7
S11305504CE45EE3C701B6010E946803882334F4C7
S113056081E0809360000E948A009DC020E030E01A
S113057040E251E4C701B6010E94C50460936C00D7
S113058070936D0080936E0090936F008CC08330E5
S113059089F520E030E040E050E4C701B6010E9454
S11305A0C004181634F484E0809360000E948A002A
S11305B07AC02DEC3CEC4CE45EE3C701B6010E942A
S11305C06803882334F482E0809360000E948A00E8
S11305D06AC020E030E048EC52E4C701B6010E9452
S11305E0C50460936C0070936D0080936E009093CB
S11305F06F0059C0843089F520E030E040E050E4D9
S1130600C701B6010E94C004181634F485E0809333
S113061060000E948A0047C02DEC3CEC4CE45EE391
S1130620C701B6010E946803882334F483E08093F1
S113063060000E948A0037C020E030E04AE754E4BA
S1130640C701B6010E94C50460936C0070936D00ED
S113065080936E0090936F0026C0853009F52DECD1
S11306603CEC4CE45EE3C701B6010E9468038823B6
S113067034F484E0809360000E948A0014C020E077
S113068030E44CE156E4C701B6010E94C50460930E
S11306906C0070936D0080936E0090936F0003C0A4
S11306A081E080936000FF91EF91BF91AF919F91A2
S11306B08F917F916F915F914F913F912F91FF9017
S11306C0EF90DF90CF900F900FBE0F901F90189572
S11306D00E944B0408F481E008950E9481030C9465
S11306E086040E947F0458F00E94780440F029F4A4
S11306F05F3F29F00C946F0451110C94BA040C94CC
S113070075040E94970468F39923B1F3552391F378
S1130710951B550BBB27AA2762177307840738F06C
S11307209F5F5F4F220F331F441FAA1FA9F335D0C9
S11307300E2E3AF0E0E832D091505040E695001C7D
S1130740CAF72BD0FE2F29D0660F771F881FBB1F37
S1130750261737074807AB07B0E809F0BB0B802D15
S1130760BF01FF2793585F4F3AF09E3F510578F041
S11307700C946F040C94BA045F3FE4F3983ED4F3F2
S1130780869577956795B795F7959F5FC9F7880F15
S1130790911D9695879597F90895E1E0660F771F67
S11307A0881FBB1F621773078407BA0720F0621BF8
S11307B0730B840BBA0BEE1F88F7E09508950E9423
S11307C09F0488F09F5798F0B92F9927B751B0F03C
S11307D0E1F0660F771F881F991F1AF0BA95C9F7C1
S11307E014C0B13091F00E94B904B1E008950C94A2
S11307F0B904672F782F8827B85F39F0B93FCCF355
S1130800869577956795B395D9F73EF4909580953D
S1130810709561957F4F8F4F9F4F0895E89409C05D
S113082097FB3EF490958095709561957F4F8F4F1F
S11308309F4F9923A9F0F92F96E9BB279395F69535
S1130840879577956795B795F111F8CFFAF4BB0FB3
S113085011F460FF1BC06F5F7F4F8F4F9F4F16C017
S1130860882311F096E911C0772321F09EE8872FA1
S1130870762F05C0662371F096E8862F70E060E05D
S11308802AF09A95660F771F881FDAF7880F9695D6
S1130890879597F90895990F0008550FAA0BE0E87A
S11308A0FEEF16161706E807F907C0F0121613062E
S11308B0E407F50798F0621B730B840B950B39F46E
S11308C00A2661F0232B242B252B21F408950A26D4
S11308D009F4A140A6958FEF811D811D089597F914
S11308E09F6780E870E060E008959FEF80EC0895D2
S11308F000240A94161617061806090608950024FB
S11309000A9412161306140605060895092E039474
S1130910000C11F4882352F0BB0F40F4BF2B11F4E8
S113092060FF04C06F5F7F4F8F4F9F4F089557FD47
S11309309058440F551F59F05F3F71F04795880F49
S113094097FB991F61F09F3F79F0879508951216E0
S113095013061406551FF2CF4695F1DF08C016168C
S113096017061806991FF1CF86957105610508943D
S11309700895E894BB2766277727CB0197F9089554
S11309800E944B0408F48FEF08950E94D8040C943D
S113099086040E94780438F00E947F0420F0952396
S11309A011F00C946F040C94750411240C94BA0483
S11309B00E94970470F3959FC1F3950F50E0551F63
S11309C0629FF001729FBB27F00DB11D639FAA27A0
S11309D0F00DB11DAA1F649F6627B00DA11D661FEF
S11309E0829F2227B00DA11D621F739FB00DA11D10
S11309F0621F839FA00D611D221F749F3327A00DCA
S1130A00611D231F849F600D211D822F762F6A2F65
S1130A1011249F5750409AF0F1F088234AF0EE0FCA
S1130A20FF1FBB1F661F771F881F91505040A9F7F7
S1130A309E3F510580F00C946F040C94BA045F3F00
S1130A40E4F3983ED4F3869577956795B795F79533
S1130A50E7959F5FC1F7FE2B880F911D96958795AB
S1130A6097F90895FA01EE0FFF1F3096210531051D
S1130A70A1F16115710561F48038BFE39B0749F169
S1130A8068949038810561F08038BFEF9B0741F08E
S1130A9099234AF5FF3FE1053105210519F1E89451
S1130AA00894E795D901AA2329F4AB2FBE2FF85F48
S1130AB0D0F310C0FF5F70F4A695E0F7F73950F05B
S1130AC019F0FF3A38F49F779F930DD00F9007FCED
S1130AD09058089546F00C94750460E070E080E846
S1130AE09FE308954FE79F775F934F933F932F932F
S1130AF00E942D062F913F914F915F910E94C50452
S1130B000C948A0529F416F00C946F040C94B9041F
S1130B100C9475040E949F04A8F39638A0F707F874
S1130B200F92E8942BE33AEA48EB5FE70E94DB0478
S1130B300F920F920F924DB75EB70F920E947506F7
S1130B40E4E5F0E00E94BC054F915F91EF91FF91C5
S1130B50E595EE1FFF1F49F0FE57E0684427EE0FAE
S1130B60441FFA95E1F74195550B0E94EF050F904C
S1130B7007FE0C94E3050895DF93CF931F930F931F
S1130B80FF92EF92DF927B018C01689406C0DA2E0B
S1130B90EF010E94D804FE01E894A59125913591B6
S1130BA045915591A6F3EF010E94C106FE019701FC
S1130BB0A801DA9469F7DF90EF90FF900F911F91ED
S1130BC0CF91DF9108959B01AC0160E070E080E873
S1130BD09FE30C946D030C946F040C9416070E940D
S1130BE09F04D8F39923C9F3940F511DA3F3915093
S1130BF0504094F059F0882332F0660F771F881F15
S1130C0091505040C1F79E3F51052CF7880F911D1C
S1130C109695879597F908955F3FACF0983E9CF0C0
S1130C20BB27869577956795B79508F4B16093953A
S1130C30C1F7BB0F58F711F460FFE8CF6F5F7F4F28
S1130C408F4F9F4FE3CF0C94BA0416F00C94160701
S1130C500C94750468940C946F040E949F04A8F388
S1130C609923C1F3AEF3DF93CF931F930F93FF92B6
S1130C70C92FDD2788232AF02197660F771F881F45
S1130C80DAF720E030E040E85FEB9FE3883920F0BA
S1130C90803E38F021968F770E94AA06ECE7F0E0B8
S1130CA004C00E94AA06E9EAF0E00E94BC058B0198
S1130CB0BE01EC01FB2E6F5771097595771F880BE8
S1130CC0990B0E94100428E132E741E35FE30E949C
S1130CD0D804AF2D9801AE01FF900F911F91CF91D1
S1130CE0DF910E94C1060C948604FA01DC01AA0F6C
S1130CF0BB1F9B01AC01BF5728F42227332744278D
S1130D00507820C0B75190F4AB2F00244695379506
S1130D102795011CA395D2F3002071F0220F331FF5
S1130D20441FB395DAF30ED00C94A9066130710513
S1130D30A0E88A07B94630F49B01AC0166277727FF
S1130D4088279078309621F020833183428353831F
S1130D5008955058BB27AA270E94C1060C94860404
S1130D600E94780438F00E947F0420F039F49F3FF9
S1130D7019F426F40C9475040EF4E095E7FB0C9436
S1130D806F04E92F0E94970458F3BA176207730798
S1130D908407950720F079F4A6F50C94B9040EF4B1
S1130DA0E0950B2EBA2FA02D0B01B90190010C0177
S1130DB0CA01A0011124FF27591B99F0593F50F48F
S1130DC0503E68F11A16F040A22F232F342F4427E7
S1130DD0585FF3CF469537952795A795F0405395DF
S1130DE0C9F77EF41F16BA0B620B730B840BBAF0AF
S1130DF09150A1F0FF0FBB1F661F771F881FC2F71A
S1130E000EC0BA0F621F731F841F48F4879577952D
S1130E106795B795F7959E3F08F0B0CF9395880FE7
S1130E2008F09927EE0F9795879508959F3F31F025
S1130E30915020F4879577956795B795880F911D04
S1130E409695879597F90895AA1BBB1B51E107C096
S1130E50AA1FBB1FA617B70710F0A61BB70B881F46
S1130E60991F5A95A9F780959095BC01CD010895D5
S1130E70A29FB001B39FC001A39F700D811D1124D7
S1130E80911DB29F700D811D1124911D0895F89438
S1050E90FFCF8E
S10F0E92013F065B4F666D7C077F6F001C
S9030000FC
